:100000000C9434000C943E000C943E000C943E0082
:100010000C943E000C943E000C943E000C943E0068
:100020000C943E000C943E000C943E000C943E0058
:100030000C943E000C943E000C943E000C943E0048
:100040000C943E000C943E000C943E000C943E0038
:100050000C943E000C943E000C943E000C943E0028
:100060000C943E000C943E0011241FBECFEFD8E04C
:10007000DEBFCDBF0E94DD000C9417010C94000080
:10008000209A5198599A52985A9A089580E48093E8
:100090007C0087E880937A00089590917C00987F97
:1000A00090937C0090917C008770892B80937C00DA
:1000B00080917A00806480937A0080917A0084FF36
:1000C000FCCF80917A00806180937A002091780043
:1000D00030917900C9010895E0E8F0E080818368FB
:1000E0008083E1E8F0E080818B608083219A08952D
:1000F0009C01893C910598F48AEA90E090938900EC
:100100008093880020E030E040E951E0CA01019787
:10011000F1F72F5F3F4F283C3105C1F70895825D0D
:1001200090408352914098F486E891E09093890042
:100130008093880020E030E040E951E0CA01019757
:10014000F1F72F5F3F4F283C3105C1F70895C901F2
:100150008E5F91408F3B9105C0F0265C32402B535F
:10016000314030F58DEC93E09093890080938800C6
:1001700020E030E040E951E0CA010197F1F72F5F3C
:100180003F4F283C3105C1F7089581EA92E09093F2
:1001900089008093880020E030E040E951E0CA0106
:1001A0000197F1F72F5F3F4F283C3105C1F70895C4
:1001B00010928900109288000895CF93DF930E94D7
:1001C00040000E9446000E946C00C0E9D1E04999BD
:1001D0001EC04A991CC020E030E0CE010197F1F723
:1001E0002F5F3F4F283C3105C1F7289A80E00E94DD
:1001F0004D000E94780020E030E0CE010197F1F739
:100200002F5F3F4F283C3105C1F7499BE2CF20E0EB
:1002100030E0CE010197F1F72F5F3F4F283C3105C9
:10022000C1F710928900109288002898D0CFF894D6
:02023000FFCFFE
:00000001FF
