:100000000C9434000C943E000C943E000C943E0082
:100010000C943E000C943E000C943E000C943E0068
:100020000C943E000C943E000C943E000C943E0058
:100030000C943E000C943E000C943E000C943E0048
:100040000C943E000C943E000C943E000C943E0038
:100050000C943E000C943E000C943E000C943E0028
:100060000C943E000C943E0011241FBECFEFD8E04C
:10007000DEBFCDBF0E9424010C9456010C940000F9
:10008000209A5098589A5198599A089580E48093EC
:100090007C0087E880937A00089590917C00987F97
:1000A00090937C0090917C008770892B80937C00DA
:1000B00080917A00806480937A0080917A0084FF36
:1000C000FCCF80917A00806180937A002091780043
:1000D00030917900C9010895E0E8F0E080818368FB
:1000E0008083E1E8F0E080818B608083219A08952D
:1000F0009C01893C910580F48AEA90E09093890004
:100100008093880088EC90E020E931E0F901319794
:10011000F1F70197D9F744C0825D90408352914036
:1001200088F486E891E0909389008093880088ECB9
:1001300090E020E931E0F9013197F1F70197D9F723
:1001400082E60895C9018E5F91408F3B910588F446
:1001500081EA92E0909389008093880088EC90E097
:1001600020E931E0F9013197F1F70197D9F783E6FA
:100170000895265C32402B53314088F48DEC93E097
:10018000909389008093880088EC90E020E931E02A
:10019000F9013197F1F70197D9F784E608950895A9
:1001A00081E6089587E68093C4001092C500789494
:1001B00086E48093C20088ED8093C1000895813663
:1001C00049F48091C00085FFFCCF82E38093C60094
:1001D00080E315C0823649F48091C00085FFFCCFD2
:1001E00082E38093C60085E30AC08336B1F4809130
:1001F000C00085FFFCCF82E38093C60089E3809333
:10020000C60080EB8093C60083E48093C60080E242
:100210008093C6001092C60008958436A1F48091A0
:10022000C00085FFFCCF83E38093C6008093C600A7
:1002300080EB8093C60083E48093C60080E28093C5
:10024000C6001092C6000895CF93DF930E9440002D
:100250000E9446000E946C00C0E9D1E0489919C094
:10026000499917C088EC90E0FE013197F1F70197AA
:10027000D9F7289A80E00E944D000E9478000E94E1
:10028000DF0088EC90E0FE013197F1F70197D9F794
:10029000E5CF88EC90E0FE013197F1F70197D9F7AF
:1002A00010928900109288002898D8CFF894FFCF38
:00000001FF
